{"abi":[{"type":"function","name":"activeClaimIssuers","inputs":[{"name":"","type":"address","internalType":"address"}],"outputs":[{"name":"","type":"bool","internalType":"bool"}],"stateMutability":"view"},{"type":"function","name":"addClaimIssuer","inputs":[{"name":"_issuer","type":"address","internalType":"address"},{"name":"_possibleClaims","type":"uint256[]","internalType":"uint256[]"}],"outputs":[],"stateMutability":"nonpayable"},{"type":"function","name":"isValidClaim","inputs":[{"name":"_issuer","type":"address","internalType":"address"},{"name":"_claim","type":"uint256","internalType":"uint256"}],"outputs":[{"name":"","type":"bool","internalType":"bool"}],"stateMutability":"view"},{"type":"function","name":"possibleClaims","inputs":[{"name":"","type":"address","internalType":"address"},{"name":"","type":"uint256","internalType":"uint256"}],"outputs":[{"name":"","type":"bool","internalType":"bool"}],"stateMutability":"view"},{"type":"function","name":"removeClaimIssuer","inputs":[{"name":"_issuer","type":"address","internalType":"address"}],"outputs":[],"stateMutability":"nonpayable"},{"type":"event","name":"ClaimIssuerAdded","inputs":[{"name":"issuer","type":"address","indexed":true,"internalType":"address"},{"name":"possibleClaims","type":"uint256[]","indexed":false,"internalType":"uint256[]"}],"anonymous":false},{"type":"event","name":"ClaimIssuerRemoved","inputs":[{"name":"issuer","type":"address","indexed":true,"internalType":"address"}],"anonymous":false}],"bytecode":{"object":"0x608060405234601c57600e6020565b6106d761002b82396106d790f35b6026565b60405190565b5f80fdfe60806040526004361015610013575b6103f2565b61001d5f3561006c565b806302f2c9a514610067578063057481ee146100625780630b4b764c1461005d57806338d742a41461005857637bf12e510361000e576103bd565b61035b565b610297565b61023e565b610138565b60e01c90565b60405190565b5f80fd5b5f80fd5b5f80fd5b60018060a01b031690565b61009890610084565b90565b6100a48161008f565b036100ab57565b5f80fd5b905035906100bc8261009b565b565b90565b6100ca816100be565b036100d157565b5f80fd5b905035906100e2826100c1565b565b919060408382031261010c5780610100610109925f86016100af565b936020016100d5565b90565b61007c565b151590565b61011f90610111565b9052565b9190610136905f60208501940190610116565b565b346101695761016561015461014e3660046100e4565b90610420565b61015c610072565b91829182610123565b0390f35b610078565b90565b61018561018061018a92610084565b61016e565b610084565b90565b61019690610171565b90565b6101a29061018d565b90565b906101af90610199565b5f5260205260405f2090565b6101cf6101ca6101d4926100be565b61016e565b6100be565b90565b906101e1906101bb565b5f5260205260405f2090565b1c90565b60ff1690565b61020790600861020c93026101ed565b6101f1565b90565b9061021a91546101f7565b90565b61023661023b926102316001935f946101a5565b6101d7565b61020f565b90565b3461026f5761026b61025a6102543660046100e4565b9061021d565b610262610072565b91829182610123565b0390f35b610078565b9060208282031261028d5761028a915f016100af565b90565b61007c565b5f0190565b346102c5576102af6102aa366004610274565b6104b8565b6102b7610072565b806102c181610292565b0390f35b610078565b5f80fd5b5f80fd5b5f80fd5b909182601f830112156103105781359167ffffffffffffffff831161030b57602001926020830284011161030657565b6102d2565b6102ce565b6102ca565b9190916040818403126103565761032e835f83016100af565b92602082013567ffffffffffffffff81116103515761034d92016102d6565b9091565b610080565b61007c565b3461038a5761037461036e366004610315565b916105d5565b61037c610072565b8061038681610292565b0390f35b610078565b9061039990610199565b5f5260205260405f2090565b6103ba906103b55f915f9261038f565b61020f565b90565b346103ed576103e96103d86103d3366004610274565b6103a5565b6103e0610072565b91829182610123565b0390f35b610078565b5f80fd5b5f90565b5f1c90565b61040b610410916103fa565b6101f1565b90565b61041d90546103ff565b90565b906104296103f6565b5061043d6104385f849061038f565b610413565b9182610449575b505090565b61046792509061045d6104629260016101a5565b6101d7565b610413565b5f80610444565b5f1b90565b9061047f60ff9161046e565b9181191691161790565b61049290610111565b90565b90565b906104ad6104a86104b492610489565b610495565b8254610473565b9055565b6104cc5f6104c75f849061038f565b610498565b6104f67f8432c8693d2550c2eb52d3f0a803b38eb8c3c0e62234fa1b6b8b35cc3866785491610199565b906104ff610072565b8061050981610292565b0390a2565b90565b61052561052061052a9261050e565b61016e565b6100be565b90565b600161053991016100be565b90565b5090565b634e487b7160e01b5f52603260045260245ffd5b9190811015610564576020020190565b610540565b35610573816100c1565b90565b60209181520190565b5f80fd5b9037565b90918261059391610576565b9160018060fb1b0381116105b657829160206105b29202938491610583565b0190565b61057f565b90916105d29260208301925f818503910152610587565b90565b916105eb60016105e65f869061038f565b610498565b6105f45f610511565b5b8061061261060c61060786869061053c565b6100be565b916100be565b1015610659576106549061064f600161064a610630600189906101a5565b61064461063f89898891610554565b610569565b906101d7565b610498565b61052d565b6105f5565b509190916106877f375851630239b005eafd9230e43a9a9d4a5d7b96a4956fc8e9d2ab3ff4583d1692610199565b9261069c610693610072565b928392836105bb565b0390a256fea2646970667358221220fb9b32d942b839a26a7186fb5a87985732bdbdca3f99eae462fbddb71846cef364736f6c634300081d0033","linkReferences":{}},"methodIdentifiers":{"activeClaimIssuers(address)":"7bf12e51","addClaimIssuer(address,uint256[])":"38d742a4","isValidClaim(address,uint256)":"02f2c9a5","possibleClaims(address,uint256)":"057481ee","removeClaimIssuer(address)":"0b4b764c"},"id":54}