{"abi":[{"type":"constructor","inputs":[{"name":"_identityFactory","type":"address","internalType":"address"},{"name":"_tokenCompliance","type":"address","internalType":"address"},{"name":"_images","type":"string[]","internalType":"string[]"},{"name":"_json","type":"string","internalType":"string"}],"stateMutability":"nonpayable"},{"type":"function","name":"allowance","inputs":[{"name":"owner","type":"address","internalType":"address"},{"name":"spender","type":"address","internalType":"address"}],"outputs":[{"name":"","type":"uint256","internalType":"uint256"}],"stateMutability":"view"},{"type":"function","name":"approve","inputs":[{"name":"spender","type":"address","internalType":"address"},{"name":"value","type":"uint256","internalType":"uint256"}],"outputs":[{"name":"","type":"bool","internalType":"bool"}],"stateMutability":"nonpayable"},{"type":"function","name":"balanceOf","inputs":[{"name":"account","type":"address","internalType":"address"}],"outputs":[{"name":"","type":"uint256","internalType":"uint256"}],"stateMutability":"view"},{"type":"function","name":"decimals","inputs":[],"outputs":[{"name":"","type":"uint8","internalType":"uint8"}],"stateMutability":"view"},{"type":"function","name":"getImages","inputs":[],"outputs":[{"name":"","type":"string[]","internalType":"string[]"}],"stateMutability":"view"},{"type":"function","name":"getJson","inputs":[],"outputs":[{"name":"","type":"string","internalType":"string"}],"stateMutability":"view"},{"type":"function","name":"identityFactory","inputs":[],"outputs":[{"name":"","type":"address","internalType":"contract IIdentityFactory"}],"stateMutability":"view"},{"type":"function","name":"images","inputs":[{"name":"","type":"uint256","internalType":"uint256"}],"outputs":[{"name":"","type":"string","internalType":"string"}],"stateMutability":"view"},{"type":"function","name":"json","inputs":[],"outputs":[{"name":"","type":"string","internalType":"string"}],"stateMutability":"view"},{"type":"function","name":"name","inputs":[],"outputs":[{"name":"","type":"string","internalType":"string"}],"stateMutability":"view"},{"type":"function","name":"setIdentityFactory","inputs":[{"name":"_identityFactory","type":"address","internalType":"address"}],"outputs":[],"stateMutability":"nonpayable"},{"type":"function","name":"setTokenCompliance","inputs":[{"name":"_tokenCompliance","type":"address","internalType":"address"}],"outputs":[],"stateMutability":"nonpayable"},{"type":"function","name":"symbol","inputs":[],"outputs":[{"name":"","type":"string","internalType":"string"}],"stateMutability":"view"},{"type":"function","name":"tokenCompliance","inputs":[],"outputs":[{"name":"","type":"address","internalType":"contract ITokenCompliance"}],"stateMutability":"view"},{"type":"function","name":"totalSupply","inputs":[],"outputs":[{"name":"","type":"uint256","internalType":"uint256"}],"stateMutability":"view"},{"type":"function","name":"transfer","inputs":[{"name":"to","type":"address","internalType":"address"},{"name":"value","type":"uint256","internalType":"uint256"}],"outputs":[{"name":"","type":"bool","internalType":"bool"}],"stateMutability":"nonpayable"},{"type":"function","name":"transferFrom","inputs":[{"name":"from","type":"address","internalType":"address"},{"name":"to","type":"address","internalType":"address"},{"name":"value","type":"uint256","internalType":"uint256"}],"outputs":[{"name":"","type":"bool","internalType":"bool"}],"stateMutability":"nonpayable"},{"type":"event","name":"Approval","inputs":[{"name":"owner","type":"address","indexed":true,"internalType":"address"},{"name":"spender","type":"address","indexed":true,"internalType":"address"},{"name":"value","type":"uint256","indexed":false,"internalType":"uint256"}],"anonymous":false},{"type":"event","name":"Transfer","inputs":[{"name":"from","type":"address","indexed":true,"internalType":"address"},{"name":"to","type":"address","indexed":true,"internalType":"address"},{"name":"value","type":"uint256","indexed":false,"internalType":"uint256"}],"anonymous":false},{"type":"error","name":"ERC20InsufficientAllowance","inputs":[{"name":"spender","type":"address","internalType":"address"},{"name":"allowance","type":"uint256","internalType":"uint256"},{"name":"needed","type":"uint256","internalType":"uint256"}]},{"type":"error","name":"ERC20InsufficientBalance","inputs":[{"name":"sender","type":"address","internalType":"address"},{"name":"balance","type":"uint256","internalType":"uint256"},{"name":"needed","type":"uint256","internalType":"uint256"}]},{"type":"error","name":"ERC20InvalidApprover","inputs":[{"name":"approver","type":"address","internalType":"address"}]},{"type":"error","name":"ERC20InvalidReceiver","inputs":[{"name":"receiver","type":"address","internalType":"address"}]},{"type":"error","name":"ERC20InvalidSender","inputs":[{"name":"sender","type":"address","internalType":"address"}]},{"type":"error","name":"ERC20InvalidSpender","inputs":[{"name":"spender","type":"address","internalType":"address"}]},{"type":"error","name":"GorraInvalidIdentity","inputs":[{"name":"userIdentity","type":"address","internalType":"address"}]},{"type":"error","name":"GorraTransferNotAllowed","inputs":[]}],"bytecode":{"object":"0x6080604052346100335761001d61001461028e565b92919091610892565b610025610038565b6118d16109db82396118d190f35b61003e565b60405190565b5f80fd5b601f801991011690565b634e487b7160e01b5f52604160045260245ffd5b9061006a90610042565b810190811060018060401b0382111761008257604052565b61004c565b9061009a610093610038565b9283610060565b565b5f80fd5b5f80fd5b60018060a01b031690565b6100b8906100a4565b90565b6100c4816100af565b036100cb57565b5f80fd5b905051906100dc826100bb565b565b5f80fd5b60018060401b0381116100f85760208091020190565b61004c565b5f80fd5b5f80fd5b60018060401b0381116101215761011d602091610042565b0190565b61004c565b90825f9392825e0152565b9092919261014661014182610105565b610087565b938185526020850190828401116101625761016092610126565b565b610101565b9080601f830112156101855781602061018293519101610131565b90565b6100de565b92919061019e610199826100e2565b610087565b93818552602080860192028101918383116101f35781905b8382106101c4575050505050565b815160018060401b0381116101ee576020916101e38784938701610167565b8152019101906101b6565b6100de565b6100fd565b9080601f83011215610216578160206102139351910161018a565b90565b6100de565b9060808282031261028957610232815f84016100cf565b9261024082602085016100cf565b92604081015160018060401b038111610284578361025f9183016101f8565b92606082015160018060401b03811161027f5761027c9201610167565b90565b6100a0565b6100a0565b61009c565b6102ac6122ac803803806102a181610087565b92833981019061021b565b90919293565b906102c46102bf83610105565b610087565b918252565b5f7f4578616d706c65546f6b656e0000000000000000000000000000000000000000910152565b6102fa600c6102b2565b90610307602083016102c9565b565b6103116102f0565b90565b5f7f4558540000000000000000000000000000000000000000000000000000000000910152565b61034560036102b2565b9061035260208301610314565b565b61035c61033b565b90565b634e487b7160e01b5f525f60045260245ffd5b60200190565b5490565b90565b600190818003010490565b5f5260205f2090565b634e487b7160e01b5f52602260045260245ffd5b90600160028304921680156103c7575b60208310146103c257565b610393565b91607f16916103b7565b5f5260205f2090565b1c90565b906103f1905f19906020036008026103da565b8154169055565b1b90565b919060086104179102916104115f19846103f8565b926103f8565b9181191691161790565b90565b61043861043361043d9261037c565b610421565b61037c565b90565b90565b919061045961045461046193610424565b610440565b9083546103fc565b9055565b5f90565b61047b91610475610465565b91610443565b565b5b818110610489575050565b806104965f600193610469565b0161047e565b906104ac905f19906008026103da565b191690565b816104bb9161049c565b906002021790565b905f916104da6104d2826103d1565b9283546104b1565b905555565b601f602091010490565b919290602082105f1461054257601f84116001146105125761050c9293506104b1565b90555b5b565b509061053861053d93600161052f610529856103d1565b926104df565b8201910161047d565b6104c3565b61050f565b5061057982936105536001946103d1565b61057261055f856104df565b820192601f861680610584575b506104df565b019061047d565b600202179055610510565b610590908886036103de565b5f61056c565b9290916801000000000000000082116105f6576020115f146105e757602081105f146105cb576105c5916104b1565b90555b5b565b60019160ff19166105db846103d1565b556002020190556105c8565b600191506002020190556105c9565b61004c565b908154610607816103a7565b90818311610630575b81831061061e575b50505050565b610627936104e9565b5f808080610618565b61063c83838387610596565b610610565b5f61064b916105fb565b565b905f0361065f5761065d90610641565b565b61035f565b5b818110610670575050565b8061067d5f60019361064d565b01610665565b9091828110610692575b505050565b6106b06106aa6106a46106bb9561037f565b9261037f565b9261038a565b918201910190610664565b5f808061068d565b906801000000000000000081116106ec57816106e16106ea93610378565b90828155610683565b565b61004c565b5190565b5190565b5190565b9190601f811161070d575b505050565b61071961073e936103d1565b906020610725846104df565b83019310610746575b610737906104df565b019061047d565b5f8080610708565b91506107378192905061072e565b9061075e816106f9565b9060018060401b03821161081c576107808261077a85546103a7565b856106fd565b602090601f83116001146107b4579180916107a3935f926107a8575b50506104b1565b90555b565b90915001515f8061079c565b601f198316916107c3856103d1565b925f5b818110610804575091600293918560019694106107ea575b505050020190556107a6565b6107fa910151601f84169061049c565b90555f80806107de565b919360206001819287870151815501950192016107c6565b61004c565b9061082b91610754565b565b61085261084c61083c846106f1565b9361084785856106c3565b610372565b9161038a565b5f915b8383106108625750505050565b600160208261087a61087484956106f5565b86610821565b01920192019190610855565b906108909161082d565b565b916108b76108be926108c59594906108a8610309565b906108b1610354565b92610991565b6007610886565b6008610821565b565b6108db6108d66108e0926100a4565b610421565b6100a4565b90565b6108ec906108c7565b90565b6108f8906108e3565b90565b5f1b90565b9061091160018060a01b03916108fb565b9181191691161790565b610924906108e3565b90565b90565b9061093f61093a6109469261091b565b610927565b8254610900565b9055565b610953906108c7565b90565b61095f9061094a565b90565b61096b9061094a565b90565b90565b9061098661098161098d92610962565b61096e565b8254610900565b9055565b6109ad6109b4916109a86109c0966109b9966109c2565b6108ef565b600561092a565b610956565b6006610971565b565b906109d16109d8926003610821565b6004610821565b56fe60806040526004361015610013575b610abd565b61001d5f3561012c565b806306fdde0314610127578063095ea7b314610122578063114983341461011d57806318160ddd1461011857806323b872dd14610113578063313ce5671461010e5780633b06ddd81461010957806370a08231146101045780637de0dfd1146100ff57806384856482146100fa57806395d89b41146100f5578063a9059cbb146100f0578063dd62ed3e146100eb578063e5f0c352146100e6578063f3c95f8b146100e1578063f703db39146100dc5763f9534fda0361000e57610a8a565b610a55565b610a22565b6109e8565b610944565b6108e1565b6108ac565b610877565b6107af565b6106dd565b61068a565b6104dc565b61047e565b61040f565b6103b8565b6102a3565b6101ba565b60e01c90565b60405190565b5f80fd5b5f80fd5b5f91031261014a57565b61013c565b5190565b60209181520190565b90825f9392825e0152565b601f801991011690565b61019061019960209361019e936101878161014f565b93848093610153565b9586910161015c565b610167565b0190565b6101b79160208201915f818403910152610171565b90565b346101ea576101ca366004610140565b6101e66101d5610ad2565b6101dd610132565b918291826101a2565b0390f35b610138565b60018060a01b031690565b610203906101ef565b90565b61020f816101fa565b0361021657565b5f80fd5b9050359061022782610206565b565b90565b61023581610229565b0361023c57565b5f80fd5b9050359061024d8261022c565b565b9190604083820312610277578061026b610274925f860161021a565b93602001610240565b90565b61013c565b151590565b61028a9061027c565b9052565b91906102a1905f60208501940190610281565b565b346102d4576102d06102bf6102b936600461024f565b90610aec565b6102c7610132565b9182918261028e565b0390f35b610138565b5190565b60209181520190565b60200190565b60209181520190565b61031461031d6020936103229361030b8161014f565b938480936102ec565b9586910161015c565b610167565b0190565b90610330916102f5565b90565b60200190565b9061034d610346836102d9565b80926102dd565b908161035e602083028401946102e6565b925f915b83831061037157505050505090565b9091929394602061039361038d83856001950387528951610326565b97610333565b9301930191939290610362565b6103b59160208201915f818403910152610339565b90565b346103e8576103c8366004610140565b6103e46103d3610bb6565b6103db610132565b918291826103a0565b0390f35b610138565b6103f690610229565b9052565b919061040d905f602085019401906103ed565b565b3461043f5761041f366004610140565b61043b61042a610bf9565b610432610132565b918291826103fa565b0390f35b610138565b90916060828403126104795761047661045f845f850161021a565b9361046d816020860161021a565b93604001610240565b90565b61013c565b346104af576104ab61049a610494366004610444565b91610c0f565b6104a2610132565b9182918261028e565b0390f35b610138565b60ff1690565b6104c3906104b4565b9052565b91906104da905f602085019401906104ba565b565b3461050c576104ec366004610140565b6105086104f7610c61565b6104ff610132565b918291826104c7565b0390f35b610138565b634e487b7160e01b5f525f60045260245ffd5b634e487b7160e01b5f52602260045260245ffd5b9060016002830492168015610558575b602083101461055357565b610524565b91607f1691610548565b5f5260205f2090565b905f929180549061058561057e83610538565b80946102ec565b916001811690815f146105dc57506001146105a0575b505050565b6105ad9192939450610562565b915f925b8184106105c457505001905f808061059b565b600181602092959395548486015201910192906105b1565b92949550505060ff19168252151560200201905f808061059b565b906106019161056b565b90565b634e487b7160e01b5f52604160045260245ffd5b9061062290610167565b810190811067ffffffffffffffff82111761063c57604052565b610604565b9061066161065a92610651610132565b938480926105f7565b0383610618565b565b905f106106765761067390610641565b90565b610511565b61068760085f90610663565b90565b346106ba5761069a366004610140565b6106b66106a561067b565b6106ad610132565b918291826101a2565b0390f35b610138565b906020828203126106d8576106d5915f0161021a565b90565b61013c565b3461070d576107096106f86106f33660046106bf565b610c99565b610700610132565b918291826103fa565b0390f35b610138565b1c90565b60018060a01b031690565b6107319060086107369302610712565b610716565b90565b906107449154610721565b90565b61075360065f90610739565b90565b90565b61076d610768610772926101ef565b610756565b6101ef565b90565b61077e90610759565b90565b61078a90610775565b90565b61079690610781565b9052565b91906107ad905f6020850194019061078d565b565b346107df576107bf366004610140565b6107db6107ca610747565b6107d2610132565b9182918261079a565b0390f35b610138565b906020828203126107fd576107fa915f01610240565b90565b61013c565b634e487b7160e01b5f52603260045260245ffd5b5490565b5f5260205f2090565b61082c81610816565b8210156108465761083e60019161081a565b910201905f90565b610802565b600761085681610816565b821015610873576108709161086a91610823565b90610663565b90565b5f80fd5b346108a7576108a361089261088d3660046107e4565b61084b565b61089a610132565b918291826101a2565b0390f35b610138565b346108dc576108bc366004610140565b6108d86108c7610cb7565b6108cf610132565b918291826101a2565b0390f35b610138565b346109125761090e6108fd6108f736600461024f565b90610ccd565b610905610132565b9182918261028e565b0390f35b610138565b919060408382031261093f578061093361093c925f860161021a565b9360200161021a565b90565b61013c565b346109755761097161096061095a366004610917565b90610d05565b610968610132565b918291826103fa565b0390f35b610138565b60018060a01b031690565b61099590600861099a9302610712565b61097a565b90565b906109a89154610985565b90565b6109b760055f9061099d565b90565b6109c390610775565b90565b6109cf906109ba565b9052565b91906109e6905f602085019401906109c6565b565b34610a18576109f8366004610140565b610a14610a036109ab565b610a0b610132565b918291826109d3565b0390f35b610138565b5f0190565b34610a5057610a3a610a353660046106bf565b610e67565b610a42610132565b80610a4c81610a1d565b0390f35b610138565b34610a8557610a65366004610140565b610a81610a70610ea1565b610a78610132565b918291826101a2565b0390f35b610138565b34610ab857610aa2610a9d3660046106bf565b610fa6565b610aaa610132565b80610ab481610a1d565b0390f35b610138565b5f80fd5b606090565b610acf90610641565b90565b610ada610ac1565b50610ae56003610ac6565b90565b5f90565b610b0991610af8610ae8565b50610b01610fe4565b919091610ff1565b600190565b606090565b90610b26610b1f610132565b9283610618565b565b67ffffffffffffffff8111610b405760208091020190565b610604565b90610b57610b5283610b28565b610b13565b918252565b90610b6682610816565b610b6f81610b45565b92610b7d602085019161081a565b5f915b838310610b8d5750505050565b600160208192610b9c85610ac6565b815201920192019190610b80565b610bb390610b5c565b90565b610bbe610b0e565b50610bc96007610baa565b90565b5f90565b5f1c90565b90565b610be4610be991610bd0565b610bd5565b90565b610bf69054610bd8565b90565b610c01610bcc565b50610c0c6002610bec565b90565b91610c3992610c1c610ae8565b50610c31610c28610fe4565b8290849161104e565b9190916110ef565b600190565b5f90565b90565b610c59610c54610c5e92610c42565b610756565b6104b4565b90565b610c69610c3e565b50610c746012610c45565b90565b610c8090610775565b90565b90610c8d90610c77565b5f5260205260405f2090565b610caf610cb491610ca8610bcc565b505f610c83565b610bec565b90565b610cbf610ac1565b50610cca6004610ac6565b90565b610cea91610cd9610ae8565b50610ce2610fe4565b9190916110ef565b600190565b90610cf990610c77565b5f5260205260405f2090565b610d2a91610d20610d2592610d18610bcc565b506001610cef565b610c83565b610bec565b90565b90565b610d44610d3f610d4992610d2d565b610756565b6101ef565b90565b610d5590610d30565b90565b60207f6164647265737300000000000000000000000000000000000000000000000000917f476f7272613a20496e76616c696420746f6b656e20636f6d706c69616e6365205f8201520152565b610db26027604092610153565b610dbb81610d58565b0190565b610dd49060208101905f818303910152610da5565b90565b15610dde57565b610de6610132565b62461bcd60e51b815280610dfc60048201610dbf565b0390fd5b610e0990610759565b90565b610e1590610e00565b90565b5f1b90565b90610e2e60018060a01b0391610e18565b9181191691161790565b610e4190610e00565b90565b90565b90610e5c610e57610e6392610e38565b610e44565b8254610e1d565b9055565b610e98610e9f91610e9381610e8c610e86610e815f610d4c565b6101fa565b916101fa565b1415610dd7565b610e0c565b6006610e47565b565b610ea9610ac1565b50610eb46008610ac6565b90565b60207f6164647265737300000000000000000000000000000000000000000000000000917f476f7272613a20496e76616c6964206964656e7469747920666163746f7279205f8201520152565b610f116027604092610153565b610f1a81610eb7565b0190565b610f339060208101905f818303910152610f04565b90565b15610f3d57565b610f45610132565b62461bcd60e51b815280610f5b60048201610f1e565b0390fd5b610f6890610759565b90565b610f7490610f5f565b90565b610f8090610f5f565b90565b90565b90610f9b610f96610fa292610f77565b610f83565b8254610e1d565b9055565b610fd7610fde91610fd281610fcb610fc5610fc05f610d4c565b6101fa565b916101fa565b1415610f36565b610f6b565b6005610f86565b565b5f90565b610fec610fe0565b503390565b91610fff92916001926111e1565b565b61100a906101fa565b9052565b60409061103761103e949695939661102d60608401985f850190611001565b60208301906103ed565b01906103ed565b565b9061104b9103610229565b90565b92919261105c818390610d05565b908161107161106b5f19610229565b91610229565b1061107e575b5050509050565b8161109161108b87610229565b91610229565b106110b7576110ae93946110a6919392611040565b905f926111e1565b805f8080611077565b506110d6849291925f938493637dc7a0d960e11b85526004850161100e565b0390fd5b91906110ed905f60208501940190611001565b565b918261110b6111056111005f610d4c565b6101fa565b916101fa565b14611165578161112b6111256111205f610d4c565b6101fa565b916101fa565b1461113e5761113c929190916112f0565b565b61116161114a5f610d4c565b5f91829163ec442f0560e01b8352600483016110da565b0390fd5b6111886111715f610d4c565b5f918291634b637e8f60e11b8352600483016110da565b0390fd5b906111985f1991610e18565b9181191691161790565b6111b66111b16111bb92610229565b610756565b610229565b90565b90565b906111d66111d16111dd926111a2565b6111be565b825461118c565b9055565b9092816111fe6111f86111f35f610d4c565b6101fa565b916101fa565b146112c9578361121e6112186112135f610d4c565b6101fa565b916101fa565b146112a2576112428361123d61123660018690610cef565b8790610c83565b6111c1565b61124c575b505050565b91909161129761128561127f7f8c5be1e5ebec7d5bd14f71427d1e84f3dd0314c0f7b2291e5b200ac8c7c3b92593610c77565b93610c77565b9361128e610132565b918291826103fa565b0390a35f8080611247565b6112c56112ae5f610d4c565b5f918291634a1406b160e11b8352600483016110da565b0390fd5b6112ec6112d55f610d4c565b5f91829163e602df0560e01b8352600483016110da565b0390fd5b916112fd92919091611454565b565b61130b61131091610bd0565b61097a565b90565b61131d90546112ff565b90565b5f80fd5b60e01b90565b9050519061133782610206565b565b906020828203126113525761134f915f0161132a565b90565b61013c565b61135f610132565b3d5f823e3d90fd5b1561136f5750565b61138a905f9182916322b3c4cf60e21b8352600483016110da565b0390fd5b61139a61139f91610bd0565b610716565b90565b6113ac905461138e565b90565b6113b88161027c565b036113bf57565b5f80fd5b905051906113d0826113af565b565b906020828203126113eb576113e8915f016113c3565b90565b61013c565b604090611419611420949695939661140f60608401985f850190611001565b6020830190611001565b01906103ed565b565b1561142957565b5f63a0fd398b60e01b81528061144160048201610a1d565b0390fd5b5f91031261144f57565b61013c565b611495602061146b6114666005611313565b6109ba565b632fea7b819061148a869261147e610132565b95869485938493611324565b8352600483016110da565b03915afa9081156116e0575f916116b2575b50906114ea60206114c06114bb6005611313565b6109ba565b632fea7b81906114df85926114d3610132565b95869485938493611324565b8352600483016110da565b03915afa9081156116ad575f9161167f575b50926115258361151c6115166115115f610d4c565b6101fa565b916101fa565b14158490611367565b61154c8461154361153d6115385f610d4c565b6101fa565b916101fa565b14158590611367565b61155e61155960066113a2565b610781565b91602063e46638e693869061158687966115918b61157a610132565b998a9687958695611324565b8552600485016113f0565b03915afa92831561167a576115b9936115b1915f9161164c575b50611422565b90859161172c565b6115cb6115c660066113a2565b610781565b631d1c833c92919392813b15611647575f6115f99161160482966115ed610132565b98899788968795611324565b8552600485016113f0565b03925af1801561164257611616575b50565b611635905f3d811161163b575b61162d8183610618565b810190611445565b5f611613565b503d611623565b611357565b611320565b61166d915060203d8111611673575b6116658183610618565b8101906113d2565b5f6115ab565b503d61165b565b611357565b6116a0915060203d81116116a6575b6116988183610618565b810190611339565b5f6114fc565b503d61168e565b611357565b6116d3915060203d81116116d9575b6116cb8183610618565b810190611339565b5f6114a7565b503d6116c1565b611357565b634e487b7160e01b5f52601160045260245ffd5b61170861170e91939293610229565b92610229565b820180921161171957565b6116e5565b906117299101610229565b90565b9190918061174a61174461173f5f610d4c565b6101fa565b916101fa565b145f1461182b5761176e611767836117626002610bec565b6116f9565b60026111c1565b5b8261178a61178461177f5f610d4c565b6101fa565b916101fa565b145f146117ff576117ae6117a7836117a26002610bec565b611040565b60026111c1565b5b9190916117fa6117e86117e27fddf252ad1be2c89b69c2b068fc378daa952ba7f163c4a11628f55a4df523b3ef93610c77565b93610c77565b936117f1610132565b918291826103fa565b0390a3565b611826826118206118115f8790610c83565b9161181b83610bec565b61171e565b906111c1565b6117af565b61183e6118395f8390610c83565b610bec565b8061185161184b85610229565b91610229565b1061187957611864611874918490611040565b61186f5f8490610c83565b6111c1565b61176f565b906118979091925f93849363391434e360e21b85526004850161100e565b0390fdfea264697066735822122068b0511297d79ecc666154fd8d68f5524505db3307473562fa6f3306fb99095864736f6c634300081d0033","linkReferences":{}},"methodIdentifiers":{"allowance(address,address)":"dd62ed3e","approve(address,uint256)":"095ea7b3","balanceOf(address)":"70a08231","decimals()":"313ce567","getImages()":"11498334","getJson()":"f703db39","identityFactory()":"e5f0c352","images(uint256)":"84856482","json()":"3b06ddd8","name()":"06fdde03","setIdentityFactory(address)":"f9534fda","setTokenCompliance(address)":"f3c95f8b","symbol()":"95d89b41","tokenCompliance()":"7de0dfd1","totalSupply()":"18160ddd","transfer(address,uint256)":"a9059cbb","transferFrom(address,address,uint256)":"23b872dd"},"id":48}