{"abi":[{"type":"constructor","inputs":[{"name":"_claimManager","type":"address","internalType":"address"}],"stateMutability":"nonpayable"},{"type":"function","name":"DEFAULT_ADMIN_ROLE","inputs":[],"outputs":[{"name":"","type":"bytes32","internalType":"bytes32"}],"stateMutability":"view"},{"type":"function","name":"ISSUER_ROLE","inputs":[],"outputs":[{"name":"","type":"bytes32","internalType":"bytes32"}],"stateMutability":"view"},{"type":"function","name":"TOKEN_FACTORY_ROLE","inputs":[],"outputs":[{"name":"","type":"bytes32","internalType":"bytes32"}],"stateMutability":"view"},{"type":"function","name":"claimManager","inputs":[],"outputs":[{"name":"","type":"address","internalType":"contract IClaimManager"}],"stateMutability":"view"},{"type":"function","name":"createIdentity","inputs":[{"name":"user","type":"address","internalType":"address"}],"outputs":[],"stateMutability":"nonpayable"},{"type":"function","name":"getIdentity","inputs":[{"name":"identityUser","type":"address","internalType":"address"}],"outputs":[{"name":"","type":"address","internalType":"address"}],"stateMutability":"view"},{"type":"function","name":"getRoleAdmin","inputs":[{"name":"role","type":"bytes32","internalType":"bytes32"}],"outputs":[{"name":"","type":"bytes32","internalType":"bytes32"}],"stateMutability":"view"},{"type":"function","name":"grantRole","inputs":[{"name":"role","type":"bytes32","internalType":"bytes32"},{"name":"account","type":"address","internalType":"address"}],"outputs":[],"stateMutability":"nonpayable"},{"type":"function","name":"hasRole","inputs":[{"name":"role","type":"bytes32","internalType":"bytes32"},{"name":"account","type":"address","internalType":"address"}],"outputs":[{"name":"","type":"bool","internalType":"bool"}],"stateMutability":"view"},{"type":"function","name":"identityByUser","inputs":[{"name":"","type":"address","internalType":"address"}],"outputs":[{"name":"","type":"address","internalType":"address"}],"stateMutability":"view"},{"type":"function","name":"linkWallet","inputs":[{"name":"identity","type":"address","internalType":"address"},{"name":"wallet","type":"address","internalType":"address"}],"outputs":[],"stateMutability":"nonpayable"},{"type":"function","name":"renounceRole","inputs":[{"name":"role","type":"bytes32","internalType":"bytes32"},{"name":"callerConfirmation","type":"address","internalType":"address"}],"outputs":[],"stateMutability":"nonpayable"},{"type":"function","name":"revokeRole","inputs":[{"name":"role","type":"bytes32","internalType":"bytes32"},{"name":"account","type":"address","internalType":"address"}],"outputs":[],"stateMutability":"nonpayable"},{"type":"function","name":"supportsInterface","inputs":[{"name":"interfaceId","type":"bytes4","internalType":"bytes4"}],"outputs":[{"name":"","type":"bool","internalType":"bool"}],"stateMutability":"view"},{"type":"event","name":"IdentityCreated","inputs":[{"name":"identityUser","type":"address","indexed":true,"internalType":"address"},{"name":"identityAddress","type":"address","indexed":true,"internalType":"address"}],"anonymous":false},{"type":"event","name":"RoleAdminChanged","inputs":[{"name":"role","type":"bytes32","indexed":true,"internalType":"bytes32"},{"name":"previousAdminRole","type":"bytes32","indexed":true,"internalType":"bytes32"},{"name":"newAdminRole","type":"bytes32","indexed":true,"internalType":"bytes32"}],"anonymous":false},{"type":"event","name":"RoleGranted","inputs":[{"name":"role","type":"bytes32","indexed":true,"internalType":"bytes32"},{"name":"account","type":"address","indexed":true,"internalType":"address"},{"name":"sender","type":"address","indexed":true,"internalType":"address"}],"anonymous":false},{"type":"event","name":"RoleRevoked","inputs":[{"name":"role","type":"bytes32","indexed":true,"internalType":"bytes32"},{"name":"account","type":"address","indexed":true,"internalType":"address"},{"name":"sender","type":"address","indexed":true,"internalType":"address"}],"anonymous":false},{"type":"error","name":"AccessControlBadConfirmation","inputs":[]},{"type":"error","name":"AccessControlUnauthorizedAccount","inputs":[{"name":"account","type":"address","internalType":"address"},{"name":"neededRole","type":"bytes32","internalType":"bytes32"}]}],"bytecode":{"object":"0x60806040523461002f576100196100146100f4565b6101ed565b610021610034565b6135f56103dd82396135f590f35b61003a565b60405190565b5f80fd5b601f801991011690565b634e487b7160e01b5f52604160045260245ffd5b906100669061003e565b810190811060018060401b0382111761007e57604052565b610048565b9061009661008f610034565b928361005c565b565b5f80fd5b60018060a01b031690565b6100b09061009c565b90565b6100bc816100a7565b036100c357565b5f80fd5b905051906100d4826100b3565b565b906020828203126100ef576100ec915f016100c7565b90565b610098565b6101126139d28038038061010781610083565b9283398101906100d6565b90565b90565b90565b5f1b90565b61013461012f61013992610115565b61011b565b610118565b90565b6101455f610120565b90565b7f114e74f6ea3bd819998f78687bfcb11b140da08e9b7d222fa9c1f1ba1f2aa12290565b90565b61018361017e6101889261009c565b61016c565b61009c565b90565b6101949061016f565b90565b6101a09061018b565b90565b906101b460018060a01b039161011b565b9181191691161790565b6101c79061018b565b90565b90565b906101e26101dd6101e9926101be565b6101ca565b82546101a3565b9055565b61021f610226916102066101ff61013c565b33906102cb565b50610219610212610148565b33906102cb565b50610197565b60026101cd565b565b5f90565b151590565b61023a90610118565b90565b9061024790610231565b5f5260205260405f2090565b61025c9061016f565b90565b61026890610253565b90565b906102759061025f565b5f5260205260405f2090565b9061028d60ff9161011b565b9181191691161790565b6102a09061022c565b90565b90565b906102bb6102b66102c292610297565b6102a3565b8254610281565b9055565b5f0190565b6102d3610228565b506102e86102e28284906103a2565b1561022c565b5f146103705761030f600161030a5f61030281869061023d565b01859061026b565b6102a6565b906103186103cf565b9061035561034f6103497f2f8788117e7eff1d82e926ec794901d17c78024a50270940304540a733656f0d95610231565b9261025f565b9261025f565b9261035e610034565b80610368816102c6565b0390a4600190565b50505f90565b5f1c90565b60ff1690565b61038d61039291610376565b61037b565b90565b61039f9054610381565b90565b6103c8915f6103bd6103c3936103b6610228565b508261023d565b0161026b565b610395565b90565b5f90565b6103d76103cb565b50339056fe60806040526004361015610013575b610755565b61001d5f356100fc565b806301ffc9a7146100f7578063248a9ca3146100f25780632f2ff15d146100ed5780632fea7b81146100e857806336568abe146100e35780635b2ab06c146100de5780635e46d9b2146100d9578063664753df146100d45780637d5ce8f0146100cf57806382aefa24146100ca57806391d14854146100c5578063a217fddf146100c0578063a9a36dcd146100bb5763d547741f0361000e57610721565b6106ec565b610649565b6105d8565b6105a3565b610540565b6104de565b61040e565b61039d565b610369565b610334565b6102c0565b61021f565b610184565b60e01c90565b60405190565b5f80fd5b5f80fd5b63ffffffff60e01b1690565b61012581610110565b0361012c57565b5f80fd5b9050359061013d8261011c565b565b9060208282031261015857610155915f01610130565b90565b61010c565b151590565b61016b9061015d565b9052565b9190610182905f60208501940190610162565b565b346101b4576101b061019f61019a36600461013f565b61075d565b6101a7610102565b9182918261016f565b0390f35b610108565b90565b6101c5816101b9565b036101cc57565b5f80fd5b905035906101dd826101bc565b565b906020828203126101f8576101f5915f016101d0565b90565b61010c565b610206906101b9565b9052565b919061021d905f602085019401906101fd565b565b3461024f5761024b61023a6102353660046101df565b6107ec565b610242610102565b9182918261020a565b0390f35b610108565b60018060a01b031690565b61026890610254565b90565b6102748161025f565b0361027b57565b5f80fd5b9050359061028c8261026b565b565b91906040838203126102b657806102aa6102b3925f86016101d0565b9360200161027f565b90565b61010c565b5f0190565b346102ef576102d96102d336600461028e565b90610837565b6102e1610102565b806102eb816102bb565b0390f35b610108565b9060208282031261030d5761030a915f0161027f565b90565b61010c565b61031b9061025f565b9052565b9190610332905f60208501940190610312565b565b346103645761036061034f61034a3660046102f4565b610868565b610357610102565b9182918261031f565b0390f35b610108565b346103985761038261037c36600461028e565b90610887565b61038a610102565b80610394816102bb565b0390f35b610108565b346103cb576103b56103b03660046102f4565b610b7c565b6103bd610102565b806103c7816102bb565b0390f35b610108565b5f9103126103da57565b61010c565b7f03ddcdb3d1fe1a4e14dc10db6bdb472b365c57f06455b8de89b9193741e2d92490565b61040b6103df565b90565b3461043e5761041e3660046103d0565b61043a610429610403565b610431610102565b9182918261020a565b0390f35b610108565b90565b61045a61045561045f92610254565b610443565b610254565b90565b61046b90610446565b90565b61047790610462565b90565b906104849061046e565b5f5260205260405f2090565b1c90565b60018060a01b031690565b6104af9060086104b49302610490565b610494565b90565b906104c2915461049f565b90565b6104db906104d66001915f9261047a565b6104b7565b90565b3461050e5761050a6104f96104f43660046102f4565b6104c5565b610501610102565b9182918261031f565b0390f35b610108565b919060408382031261053b578061052f610538925f860161027f565b9360200161027f565b90565b61010c565b3461056f57610559610553366004610513565b90610db9565b610561610102565b8061056b816102bb565b0390f35b610108565b7f114e74f6ea3bd819998f78687bfcb11b140da08e9b7d222fa9c1f1ba1f2aa12290565b6105a0610574565b90565b346105d3576105b33660046103d0565b6105cf6105be610598565b6105c6610102565b9182918261020a565b0390f35b610108565b34610609576106056105f46105ee36600461028e565b90610f3e565b6105fc610102565b9182918261016f565b0390f35b610108565b90565b5f1b90565b61062a61062561062f9261060e565b610611565b6101b9565b90565b61063b5f610616565b90565b610646610632565b90565b34610679576106593660046103d0565b61067561066461063e565b61066c610102565b9182918261020a565b0390f35b610108565b60018060a01b031690565b61069990600861069e9302610490565b61067e565b90565b906106ac9154610689565b90565b6106bb60025f906106a1565b90565b6106c790610462565b90565b6106d3906106be565b9052565b91906106ea905f602085019401906106ca565b565b3461071c576106fc3660046103d0565b6107186107076106af565b61070f610102565b918291826106d7565b0390f35b610108565b346107505761073a61073436600461028e565b90610f91565b610742610102565b8061074c816102bb565b0390f35b610108565b5f80fd5b5f90565b610765610759565b508061078061077a637965db0b60e01b610110565b91610110565b1490811561078d575b5090565b6107979150610f9d565b5f610789565b5f90565b6107aa906101b9565b90565b906107b7906107a1565b5f5260205260405f2090565b5f1c90565b90565b6107d76107dc916107c3565b6107c8565b90565b6107e990546107cb565b90565b600161080461080a926107fd61079d565b505f6107ad565b016107df565b90565b906108289161082361081e826107ec565b610fc3565b61082a565b565b906108349161101c565b50565b906108419161080d565b565b5f90565b610853610858916107c3565b610494565b90565b6108659054610847565b90565b61087f61088491610877610843565b50600161047a565b61085b565b90565b90806108a261089c6108976110c7565b61025f565b9161025f565b036108b3576108b0916110d4565b50565b5f63334bd91960e11b8152806108cb600482016102bb565b0390fd5b6108e8906108e36108de610574565b610fc3565b610a75565b565b6108fe6108f96109039261060e565b610443565b610254565b90565b61090f906108ea565b90565b60209181520190565b60207f7920657869737473000000000000000000000000000000000000000000000000917f4964656e74697479466163746f72793a204964656e7469747920616c726561645f8201520152565b6109756028604092610912565b61097e8161091b565b0190565b6109979060208101905f818303910152610968565b90565b156109a157565b6109a9610102565b62461bcd60e51b8152806109bf60048201610982565b0390fd5b6109cf6109d4916107c3565b61067e565b90565b6109e190546109c3565b90565b634e487b7160e01b5f52604160045260245ffd5b916020610a19929493610a1260408201965f830190610312565b0190610312565b565b610a23610102565b3d5f823e3d90fd5b610a3490610462565b90565b90610a4860018060a01b0391610611565b9181191691161790565b90565b90610a6a610a65610a719261046e565b610a52565b8254610a37565b9055565b610aac610a8c610a876001849061047a565b61085b565b610aa6610aa0610a9b5f610906565b61025f565b9161025f565b1461099a565b610abe610ab960026109d7565b6106be565b8190610ac8610102565b916123ec83019083821067ffffffffffffffff831117610b77578392610af5926123ec6111d486396109f8565b03905ff08015610b7257610b279091610b21610b1084610a2b565b610b1c6001849061047a565b610a55565b91610a2b565b610b5a610b547f45afe31e3a48a54e27da1d1f2ec6c6e272ce5838616e0d61071b223bceb5c6909361046e565b9161046e565b91610b63610102565b80610b6d816102bb565b0390a3565b610a1b565b6109e4565b610b85906108cf565b565b610b9090610446565b90565b610b9c90610b87565b90565b60207f6f74206578697374000000000000000000000000000000000000000000000000917f4964656e74697479466163746f72793a204964656e7469747920646f6573206e5f8201520152565b610bf96028604092610912565b610c0281610b9f565b0190565b610c1b9060208101905f818303910152610bec565b90565b15610c2557565b610c2d610102565b62461bcd60e51b815280610c4360048201610c06565b0390fd5b601f801991011690565b90610c5b90610c47565b810190811067ffffffffffffffff821117610c7557604052565b6109e4565b60e01b90565b90505190610c8d826101bc565b565b90602082820312610ca857610ca5915f01610c80565b90565b61010c565b610cb68161015d565b03610cbd57565b5f80fd5b90505190610cce82610cad565b565b90602082820312610ce957610ce6915f01610cc1565b90565b61010c565b916020610d0f929493610d0860408201965f8301906101fd565b0190610312565b565b60207f65204944454e544954595f41444d494e20726f6c650000000000000000000000917f4964656e74697479466163746f72793a2057616c6c6574206d757374206861765f8201520152565b610d6b6035604092610912565b610d7481610d11565b0190565b610d8d9060208101905f818303910152610d5e565b90565b15610d9757565b610d9f610102565b62461bcd60e51b815280610db560048201610d78565b0390fd5b90610dc382610b93565b91610de981610de2610ddc610dd75f610906565b61025f565b9161025f565b1415610c1e565b610e1b610df584610a2b565b6020610e056391d1485496610a2b565b639ac22ba490610e13610102565b948592610c7a565b82528180610e2b600482016102bb565b03915afa908115610efc576020925f92610ecd575b50610e5d3396610e68610e51610102565b98899586948594610c7a565b845260048401610cee565b03915afa908115610ec857610e8b610e9392610e98955f91610e9a575b50610d90565b91600161047a565b610a55565b565b610ebb915060203d8111610ec1575b610eb38183610c51565b810190610cd0565b5f610e85565b503d610ea9565b610a1b565b610eee919250833d8111610ef5575b610ee68183610c51565b810190610c8f565b905f610e40565b503d610edc565b610a1b565b90610f0b9061046e565b5f5260205260405f2090565b60ff1690565b610f29610f2e916107c3565b610f17565b90565b610f3b9054610f1d565b90565b610f64915f610f59610f5f93610f52610759565b50826107ad565b01610f01565b610f31565b90565b90610f8291610f7d610f78826107ec565b610fc3565b610f84565b565b90610f8e916110d4565b50565b90610f9b91610f67565b565b610fa5610759565b50610fbf610fb96301ffc9a760e01b610110565b91610110565b1490565b610fd590610fcf6110c7565b90611198565b565b90610fe360ff91610611565b9181191691161790565b610ff69061015d565b90565b90565b9061101161100c61101892610fed565b610ff9565b8254610fd7565b9055565b611024610759565b50611039611033828490610f3e565b1561015d565b5f146110c157611060600161105b5f6110538186906107ad565b018590610f01565b610ffc565b906110696110c7565b906110a66110a061109a7f2f8788117e7eff1d82e926ec794901d17c78024a50270940304540a733656f0d956107a1565b9261046e565b9261046e565b926110af610102565b806110b9816102bb565b0390a4600190565b50505f90565b6110cf610843565b503390565b6110dc610759565b506110e8818390610f3e565b5f1461116f5761110e5f6111095f6111018186906107ad565b018590610f01565b610ffc565b906111176110c7565b9061115461114e6111487ff6391f5c32d9c69d2a47ea670b442974b53935d1edc7fd64eb21e047a839171b956107a1565b9261046e565b9261046e565b9261115d610102565b80611167816102bb565b0390a4600190565b50505f90565b91602061119692949361118f60408201965f830190610312565b01906101fd565b565b906111ad6111a7838390610f3e565b1561015d565b6111b5575050565b6111cf5f92839263e2517d3f60e01b845260048401611175565b0390fdfe6080604052346100305761001a610014610104565b906101fe565b610022610035565b611f5f61048d8239611f5f90f35b61003b565b60405190565b5f80fd5b601f801991011690565b634e487b7160e01b5f52604160045260245ffd5b906100679061003f565b810190811060018060401b0382111761007f57604052565b610049565b90610097610090610035565b928361005d565b565b5f80fd5b60018060a01b031690565b6100b19061009d565b90565b6100bd816100a8565b036100c457565b5f80fd5b905051906100d5826100b4565b565b91906040838203126100ff57806100f36100fc925f86016100c8565b936020016100c8565b90565b610099565b6101226123ec8038038061011781610084565b9283398101906100d7565b9091565b90565b61013d6101386101429261009d565b610126565b61009d565b90565b61014e90610129565b90565b61015a90610145565b90565b5f1b90565b9061017360018060a01b039161015d565b9181191691161790565b61018690610145565b90565b90565b906101a161019c6101a89261017d565b610189565b8254610162565b9055565b7f9b4486f863c18a7ef3a9a59ad7d081b4cbdd2529c65ddfa56f92eb9bf12b4a9090565b90565b90565b6101ea6101e56101ef926101d0565b61015d565b6101d3565b90565b6101fb5f6101d6565b90565b9061021d61021661023d936102116102c4565b610151565b600261018c565b61022f6102286101ac565b829061037b565b506102386101f2565b61037b565b50565b90565b90565b61025a61025561025f92610240565b610126565b610243565b90565b61026c6001610246565b90565b9061027b5f199161015d565b9181191691161790565b61029961029461029e92610243565b610126565b610243565b90565b90565b906102b96102b46102c092610285565b6102a1565b825461026f565b9055565b6102d66102cf610262565b60016102a4565b565b5f90565b151590565b6102ea906101d3565b90565b906102f7906102e1565b5f5260205260405f2090565b61030c90610129565b90565b61031890610303565b90565b906103259061030f565b5f5260205260405f2090565b9061033d60ff9161015d565b9181191691161790565b610350906102dc565b90565b90565b9061036b61036661037292610347565b610353565b8254610331565b9055565b5f0190565b6103836102d8565b50610398610392828490610452565b156102dc565b5f14610420576103bf60016103ba5f6103b28186906102ed565b01859061031b565b610356565b906103c861047f565b906104056103ff6103f97f2f8788117e7eff1d82e926ec794901d17c78024a50270940304540a733656f0d956102e1565b9261030f565b9261030f565b9261040e610035565b8061041881610376565b0390a4600190565b50505f90565b5f1c90565b60ff1690565b61043d61044291610426565b61042b565b90565b61044f9054610431565b90565b610478915f61046d610473936104666102d8565b50826102ed565b0161031b565b610445565b90565b5f90565b61048761047b565b50339056fe60806040526004361015610013575b610aad565b61001d5f356100fc565b806301ffc9a7146100f7578063248a9ca3146100f25780632f2ff15d146100ed57806336568abe146100e857806391d14854146100e35780639ac22ba4146100de578063a217fddf146100d9578063a9a36dcd146100d4578063b030dc16146100cf578063cf62ba92146100ca578063d547741f146100c5578063da4cb047146100c0578063ef2f8787146100bb5763f894160e0361000e57610a74565b610717565b6106e2565b610690565b61065b565b6105ce565b6104e2565b610410565b6103a0565b61032c565b6102f8565b6102c4565b610223565b610188565b60e01c90565b60405190565b5f80fd5b5f80fd5b5f80fd5b63ffffffff60e01b1690565b61012981610114565b0361013057565b5f80fd5b9050359061014182610120565b565b9060208282031261015c57610159915f01610134565b90565b61010c565b151590565b61016f90610161565b9052565b9190610186905f60208501940190610166565b565b346101b8576101b46101a361019e366004610143565b610ab5565b6101ab610102565b91829182610173565b0390f35b610108565b90565b6101c9816101bd565b036101d057565b5f80fd5b905035906101e1826101c0565b565b906020828203126101fc576101f9915f016101d4565b90565b61010c565b61020a906101bd565b9052565b9190610221905f60208501940190610201565b565b346102535761024f61023e6102393660046101e3565b610b3f565b610246610102565b9182918261020e565b0390f35b610108565b60018060a01b031690565b61026c90610258565b90565b61027881610263565b0361027f57565b5f80fd5b905035906102908261026f565b565b91906040838203126102ba57806102ae6102b7925f86016101d4565b93602001610283565b90565b61010c565b5f0190565b346102f3576102dd6102d7366004610292565b90610b8a565b6102e5610102565b806102ef816102bf565b0390f35b610108565b346103275761031161030b366004610292565b90610b96565b610319610102565b80610323816102bf565b0390f35b610108565b3461035d57610359610348610342366004610292565b90610c27565b610350610102565b91829182610173565b0390f35b610108565b5f91031261036c57565b61010c565b7f9b4486f863c18a7ef3a9a59ad7d081b4cbdd2529c65ddfa56f92eb9bf12b4a9090565b61039d610371565b90565b346103d0576103b0366004610362565b6103cc6103bb610395565b6103c3610102565b9182918261020e565b0390f35b610108565b90565b5f1b90565b6103f16103ec6103f6926103d5565b6103d8565b6101bd565b90565b6104025f6103dd565b90565b61040d6103f9565b90565b3461044057610420366004610362565b61043c61042b610405565b610433610102565b9182918261020e565b0390f35b610108565b1c90565b60018060a01b031690565b6104649060086104699302610445565b610449565b90565b906104779154610454565b90565b61048660025f9061046c565b90565b90565b6104a061049b6104a592610258565b610489565b610258565b90565b6104b19061048c565b90565b6104bd906104a8565b90565b6104c9906104b4565b9052565b91906104e0905f602085019401906104c0565b565b34610512576104f2366004610362565b61050e6104fd61047a565b610505610102565b918291826104cd565b0390f35b610108565b90565b61052381610517565b0361052a57565b5f80fd5b9050359061053b8261051a565b565b5f80fd5b5f80fd5b5f80fd5b909182601f830112156105835781359167ffffffffffffffff831161057e57602001926001830284011161057957565b610545565b610541565b61053d565b9190916040818403126105c9576105a1835f830161052e565b92602082013567ffffffffffffffff81116105c4576105c09201610549565b9091565b610110565b61010c565b346105fd576105e76105e1366004610588565b91611460565b6105ef610102565b806105f9816102bf565b0390f35b610108565b90565b61061961061461061e92610602565b610489565b610517565b90565b61062b6004610605565b90565b610636610621565b90565b61064290610517565b9052565b9190610659905f60208501940190610639565b565b3461068b5761066b366004610362565b61068761067661062e565b61067e610102565b91829182610646565b0390f35b610108565b346106bf576106a96106a3366004610292565b90611497565b6106b1610102565b806106bb816102bf565b0390f35b610108565b906020828203126106dd576106da915f0161052e565b90565b61010c565b346107125761070e6106fd6106f83660046106c4565b6114ed565b610705610102565b91829182610173565b0390f35b610108565b346107455761072f61072a3660046106c4565b611bad565b610737610102565b80610741816102bf565b0390f35b610108565b9190604083820312610772578061076661076f925f860161052e565b9360200161052e565b90565b61010c565b61078b61078661079092610517565b610489565b610517565b90565b9061079d90610777565b5f5260205260405f2090565b634e487b7160e01b5f52603260045260245ffd5b5490565b5f5260205f2090565b6107d3816107bd565b8210156107ed576107e56003916107c1565b910201905f90565b6107a9565b5f1c90565b60018060a01b031690565b61080e610813916107f2565b6107f7565b90565b6108209054610802565b90565b90565b610832610837916107f2565b610823565b90565b6108449054610826565b90565b634e487b7160e01b5f52602260045260245ffd5b906001600283049216801561087b575b602083101461087657565b610847565b91607f169161086b565b60209181520190565b5f5260205f2090565b905f92918054906108b16108aa8361085b565b8094610885565b916001811690815f1461090857506001146108cc575b505050565b6108d9919293945061088e565b915f925b8184106108f057505001905f80806108c7565b600181602092959395548486015201910192906108dd565b92949550505060ff19168252151560200201905f80806108c7565b9061092d91610897565b90565b601f801991011690565b634e487b7160e01b5f52604160045260245ffd5b9061095890610930565b810190811067ffffffffffffffff82111761097257604052565b61093a565b9061099761099092610987610102565b93848092610923565b038361094e565b565b6109a4906003610793565b906109ae826107bd565b8110156109e6576109be916107ca565b506109ca5f8201610816565b916109e360026109dc6001850161083a565b9301610977565b90565b5f80fd5b6109f390610263565b9052565b5190565b60209181520190565b90825f9392825e0152565b610a2e610a37602093610a3c93610a25816109f7565b938480936109fb565b95869101610a04565b610930565b0190565b610a64610a71949293610a5a60608401955f8501906109ea565b6020830190610639565b6040818403910152610a0f565b90565b34610aa857610aa4610a90610a8a36600461074a565b90610999565b610a9b939193610102565b93849384610a40565b0390f35b610108565b5f80fd5b5f90565b610abd610ab1565b5080610ad8610ad2637965db0b60e01b610114565b91610114565b14908115610ae5575b5090565b610aef9150611bb8565b5f610ae1565b5f90565b610b02906101bd565b90565b90610b0f90610af9565b5f5260205260405f2090565b90565b610b2a610b2f916107f2565b610b1b565b90565b610b3c9054610b1e565b90565b6001610b57610b5d92610b50610af5565b505f610b05565b01610b32565b90565b90610b7b91610b76610b7182610b3f565b611bde565b610b7d565b565b90610b8791611c37565b50565b90610b9491610b60565b565b9080610bb1610bab610ba6611ce6565b610263565b91610263565b03610bc257610bbf91611cf3565b50565b5f63334bd91960e11b815280610bda600482016102bf565b0390fd5b610be7906104a8565b90565b90610bf490610bde565b5f5260205260405f2090565b60ff1690565b610c12610c17916107f2565b610c00565b90565b610c249054610c06565b90565b610c4d915f610c42610c4893610c3b610ab1565b5082610b05565b01610bea565b610c1a565b90565b90610c639291610c5e611dc0565b610db0565b610c6b611e25565b565b610c79610c7e916107f2565b610449565b90565b610c8b9054610c6d565b90565b60e01b90565b610c9d81610161565b03610ca457565b5f80fd5b90505190610cb582610c94565b565b90602082820312610cd057610ccd915f01610ca8565b90565b61010c565b916020610cf6929493610cef60408201965f8301906109ea565b0190610639565b565b610d00610102565b3d5f823e3d90fd5b60207f6572000000000000000000000000000000000000000000000000000000000000917f4964656e746974793a204e6f7420612076616c696420636c61696d20697373755f8201520152565b610d6260226040926109fb565b610d6b81610d08565b0190565b610d849060208101905f818303910152610d55565b90565b15610d8e57565b610d96610102565b62461bcd60e51b815280610dac60048201610d6f565b0390fd5b9190826020610dc7610dc26002610c81565b6104b4565b946302f2c9a595610deb339297610df6610ddf610102565b998a9586948594610c8e565b845260048401610cd5565b03915afa938415610e4b57610e1b94610e16915f91610e1d575b50610d87565b6113b3565b565b610e3e915060203d8111610e44575b610e36818361094e565b810190610cb7565b5f610e10565b503d610e2c565b610cf8565b60207f7920746869732069737375657200000000000000000000000000000000000000917f4964656e746974793a20436c61696d20616c72656164792069737375656420625f8201520152565b610eaa602d6040926109fb565b610eb381610e50565b0190565b610ecc9060208101905f818303910152610e9d565b90565b15610ed657565b610ede610102565b62461bcd60e51b815280610ef460048201610eb7565b0390fd5b60207f2072656163686564000000000000000000000000000000000000000000000000917f4964656e746974793a204d6178696d756d20636c61696d73206f6620747970655f8201520152565b610f5260286040926109fb565b610f5b81610ef8565b0190565b610f749060208101905f818303910152610f45565b90565b15610f7e57565b610f86610102565b62461bcd60e51b815280610f9c60048201610f5f565b0390fd5b90565b90610fb6610faf610102565b928361094e565b565b610fc26060610fa3565b90565b90610fcf90610263565b9052565b90610fdd90610517565b9052565b5f80fd5b67ffffffffffffffff811161100357610fff602091610930565b0190565b61093a565b90825f939282370152565b9092919261102861102382610fe5565b610fa3565b938185526020850190828401116110445761104292611008565b565b610fe1565b611054913691611013565b90565b52565b5f5260205f2090565b5490565b61107081611063565b82101561108a5761108260039161105a565b910201905f90565b6107a9565b634e487b7160e01b5f525f60045260245ffd5b6110ac9051610263565b90565b906110c060018060a01b03916103d8565b9181191691161790565b90565b906110e26110dd6110e992610bde565b6110ca565b82546110af565b9055565b6110f79051610517565b90565b906111065f19916103d8565b9181191691161790565b90565b9061112861112361112f92610777565b611110565b82546110fa565b9055565b5190565b601f602091010490565b1b90565b9190600861116091029161115a5f1984611141565b92611141565b9181191691161790565b919061118061117b61118893610777565b611110565b908354611145565b9055565b5f90565b6111a29161119c61118c565b9161116a565b565b5b8181106111b0575050565b806111bd5f600193611190565b016111a5565b9190601f81116111d3575b505050565b6111df6112049361088e565b9060206111eb84611137565b8301931061120c575b6111fd90611137565b01906111a4565b5f80806111ce565b91506111fd819290506111f4565b9061122a905f1990600802610445565b191690565b816112399161121a565b906002021790565b9061124b816109f7565b9067ffffffffffffffff821161130b5761126f82611269855461085b565b856111c3565b602090601f83116001146112a357918091611292935f92611297575b505061122f565b90555b565b90915001515f8061128b565b601f198316916112b28561088e565b925f5b8181106112f3575091600293918560019694106112d9575b50505002019055611295565b6112e9910151601f84169061121a565b90555f80806112cd565b919360206001819287870151815501950192016112b5565b61093a565b9061131a91611241565b565b90611360604060026113669461133f5f82016113395f88016110a2565b906110cd565b61135860018201611352602088016110ed565b90611113565b019201611133565b90611310565b565b9190611379576113779161131c565b565b61108f565b90815491680100000000000000008310156113ae57826113a69160016113ac95018155611067565b90611368565b565b61093a565b909161145961145061145e946113db6113d66113d0873390611e39565b15610161565b610ecf565b6114116113f26113ed60038890610793565b6107bd565b61140b611405611400610621565b610517565b91610517565b10610f77565b61142561142060038790610793565b610fa0565b9361144b3396929192611442611439610fb8565b985f8a01610fc5565b60208801610fd3565b611049565b60408401611057565b61137e565b565b9061146b9291610c50565b565b906114889161148361147e82610b3f565b611bde565b61148a565b565b9061149491611cf3565b50565b906114a19161146d565b565b6114b76114b26114bc926103d5565b610489565b610517565b90565b90565b6114d66114d16114db926114bf565b610489565b610517565b90565b60016114ea9101610517565b90565b6114f5610ab1565b5061150a61150560038390610793565b610fa0565b61151381611063565b806115266115205f6114a3565b91610517565b1461163c578061153f61153960646114c2565b91610517565b115f14611637575061155160646114c2565b5b9161155c5f6114a3565b5b8061157061156a86610517565b91610517565b101561162f576115886115836002610c81565b6104b4565b60206302f2c9a5916115a65f61159f888790611067565b5001610816565b906115c386946115ce6115b7610102565b96879586948594610c8e565b845260048401610cd5565b03915afa90811561162a575f916115fc575b506115f3576115ee906114de565b61155d565b50505050600190565b61161d915060203d8111611623575b611615818361094e565b810190610cb7565b5f6115e0565b503d61160b565b610cf8565b505050505f90565b611552565b5050505f90565b6116549061164f611dc0565b61165e565b61165c611e25565b565b80602061167361166e6002610c81565b6104b4565b926302f2c9a5936116973392956116a261168b610102565b97889586948594610c8e565b845260048401610cd5565b03915afa9182156116f7576116c7926116c2915f916116c9575b50610d87565b611ae6565b565b6116ea915060203d81116116f0575b6116e2818361094e565b810190610cb7565b5f6116bc565b503d6116d8565b610cf8565b90565b61171361170e611718926116fc565b610489565b610517565b90565b634e487b7160e01b5f52601160045260245ffd5b61173e61174491939293610517565b92610517565b820391821161174f57565b61171b565b61175e905461085b565b90565b908082146118405761177281611754565b9067ffffffffffffffff821161183b5761179682611790855461085b565b856111c3565b5f90601f83116001146117c9579180916117b8935f926117bd575b505061122f565b90555b565b90915001545f806117b1565b906117d8601f1984169261088e565b906117e28561088e565b925f5b81811061182357509160029391856001969410611809575b505050020190556117bb565b611819910154601f84169061121a565b90555f80806117fd565b919360018060209287870154815501950192016117e5565b61093a565b5050565b9061184e91611761565b565b9080820361185d575b5050565b6002808361187b5f61189d96016118755f8701610816565b906110cd565b6118946001820161188e6001870161083a565b90611113565b01910190611844565b5f80611859565b91906118b5576118b391611850565b565b61108f565b634e487b7160e01b5f52603160045260245ffd5b906118e1905f1990602003600802610445565b8154169055565b905f916118ff6118f78261088e565b92835461122f565b905555565b919290602082105f1461195d57601f841160011461192d5761192792935061122f565b90555b5b565b509061195361195893600161194a6119448561088e565b92611137565b820191016111a4565b6118e8565b61192a565b50611994829361196e60019461088e565b61198d61197a85611137565b820192601f86168061199f575b50611137565b01906111a4565b60020217905561192b565b6119ab908886036118ce565b5f611987565b929091680100000000000000008211611a11576020115f14611a0257602081105f146119e6576119e09161122f565b90555b5b565b60019160ff19166119f68461088e565b556002020190556119e3565b600191506002020190556119e4565b61093a565b908154611a228161085b565b90818311611a4b575b818310611a39575b50505050565b611a4293611904565b5f808080611a33565b611a57838383876119b1565b611a2b565b5f611a6691611a16565b565b905f03611a7a57611a7890611a5c565b565b61108f565b5f6002611a9e928280820155611a988360018301611190565b01611a68565b565b905f03611ab257611ab090611a7f565b565b61108f565b611ac081611063565b8015611ae1576001900390611ade611ad88383611067565b90611aa0565b55565b6118ba565b611af4611af9916003610793565b610fa0565b611b025f6114a3565b5b80611b1e611b18611b1385611063565b610517565b91610517565b1015611ba657611b3a5f611b33848490611067565b5001610816565b611b4c611b4633610263565b91610263565b14611b5f57611b5a906114de565b611b03565b90611b9e611ba392611b98611b9084611b8a611b7a87611063565b611b8460016116ff565b9061172f565b90611067565b509184611067565b906118a4565b611ab7565b5b565b5050611ba4565b611bb690611643565b565b611bc0610ab1565b50611bda611bd46301ffc9a760e01b610114565b91610114565b1490565b611bf090611bea611ce6565b90611eee565b565b90611bfe60ff916103d8565b9181191691161790565b611c1190610161565b90565b90565b90611c2c611c27611c3392611c08565b611c14565b8254611bf2565b9055565b611c3f610ab1565b50611c54611c4e828490610c27565b15610161565b5f14611cdc57611c7b6001611c765f611c6e818690610b05565b018590610bea565b611c17565b90611c84611ce6565b90611cc1611cbb611cb57f2f8788117e7eff1d82e926ec794901d17c78024a50270940304540a733656f0d95610af9565b92610bde565b92610bde565b92611cca610102565b80611cd4816102bf565b0390a4600190565b50505f90565b5f90565b611cee611ce2565b503390565b611cfb610ab1565b50611d07818390610c27565b5f14611d8e57611d2d5f611d285f611d20818690610b05565b018590610bea565b611c17565b90611d36611ce6565b90611d73611d6d611d677ff6391f5c32d9c69d2a47ea670b442974b53935d1edc7fd64eb21e047a839171b95610af9565b92610bde565b92610bde565b92611d7c610102565b80611d86816102bf565b0390a4600190565b50505f90565b90565b611dab611da6611db092611d94565b610489565b610517565b90565b611dbd6002611d97565b90565b611dca600161083a565b611de3611ddd611dd8611db3565b610517565b91610517565b14611dfc57611dfa611df3611db3565b6001611113565b565b5f633ee5aeb560e01b815280611e14600482016102bf565b0390fd5b611e2260016116ff565b90565b611e37611e30611e18565b6001611113565b565b611e50611e5591611e48610ab1565b506003610793565b610fa0565b90611e5f5f6114a3565b5b80611e7b611e75611e7086611063565b610517565b91610517565b1015611ec457611e975f611e90858490611067565b5001610816565b611ea9611ea384610263565b91610263565b14611ebc57611eb7906114de565b611e60565b505050600190565b5050505f90565b916020611eec929493611ee560408201965f8301906109ea565b0190610201565b565b90611f03611efd838390610c27565b15610161565b611f0b575050565b611f255f92839263e2517d3f60e01b845260048401611ecb565b0390fdfea26469706673582212200dba38b25fe3dd185447badd85edfd88416464036bb172c050312df823f5221864736f6c634300081d0033a26469706673582212200bb12b6512e62d701bb65cf94990491516fbd9a659ea56b6de0599e370f9e47f64736f6c634300081d0033","linkReferences":{}},"methodIdentifiers":{"DEFAULT_ADMIN_ROLE()":"a217fddf","ISSUER_ROLE()":"82aefa24","TOKEN_FACTORY_ROLE()":"5e46d9b2","claimManager()":"a9a36dcd","createIdentity(address)":"5b2ab06c","getIdentity(address)":"2fea7b81","getRoleAdmin(bytes32)":"248a9ca3","grantRole(bytes32,address)":"2f2ff15d","hasRole(bytes32,address)":"91d14854","identityByUser(address)":"664753df","linkWallet(address,address)":"7d5ce8f0","renounceRole(bytes32,address)":"36568abe","revokeRole(bytes32,address)":"d547741f","supportsInterface(bytes4)":"01ffc9a7"},"id":53}