{"abi":[{"type":"constructor","inputs":[{"name":"_token","type":"address","internalType":"address"},{"name":"_requiredClaims","type":"uint256[]","internalType":"uint256[]"},{"name":"_transferComplianceModules","type":"address[]","internalType":"address[]"}],"stateMutability":"nonpayable"},{"type":"function","name":"canTransfer","inputs":[{"name":"_fromIdentity","type":"address","internalType":"address"},{"name":"_toIdentity","type":"address","internalType":"address"},{"name":"_amount","type":"uint256","internalType":"uint256"}],"outputs":[{"name":"","type":"bool","internalType":"bool"}],"stateMutability":"view"},{"type":"function","name":"owner","inputs":[],"outputs":[{"name":"","type":"address","internalType":"address"}],"stateMutability":"view"},{"type":"function","name":"renounceOwnership","inputs":[],"outputs":[],"stateMutability":"nonpayable"},{"type":"function","name":"requiredClaims","inputs":[{"name":"","type":"uint256","internalType":"uint256"}],"outputs":[{"name":"","type":"uint256","internalType":"uint256"}],"stateMutability":"view"},{"type":"function","name":"setToken","inputs":[{"name":"_token","type":"address","internalType":"address"}],"outputs":[],"stateMutability":"nonpayable"},{"type":"function","name":"token","inputs":[],"outputs":[{"name":"","type":"address","internalType":"address"}],"stateMutability":"view"},{"type":"function","name":"tokensTransfered","inputs":[{"name":"_fromIdentity","type":"address","internalType":"address"},{"name":"_toIdentity","type":"address","internalType":"address"},{"name":"_amount","type":"uint256","internalType":"uint256"}],"outputs":[],"stateMutability":"nonpayable"},{"type":"function","name":"transferComplianceModules","inputs":[{"name":"","type":"uint256","internalType":"uint256"}],"outputs":[{"name":"","type":"address","internalType":"address"}],"stateMutability":"view"},{"type":"function","name":"transferOwnership","inputs":[{"name":"newOwner","type":"address","internalType":"address"}],"outputs":[],"stateMutability":"nonpayable"},{"type":"event","name":"OwnershipTransferred","inputs":[{"name":"previousOwner","type":"address","indexed":true,"internalType":"address"},{"name":"newOwner","type":"address","indexed":true,"internalType":"address"}],"anonymous":false},{"type":"error","name":"OwnableInvalidOwner","inputs":[{"name":"owner","type":"address","internalType":"address"}]},{"type":"error","name":"OwnableUnauthorizedAccount","inputs":[{"name":"account","type":"address","internalType":"address"}]}],"bytecode":{"object":"0x6080604052346100305761001a610014610298565b91610630565b610022610035565b610dee6107868239610dee90f35b61003b565b60405190565b5f80fd5b601f801991011690565b634e487b7160e01b5f52604160045260245ffd5b906100679061003f565b810190811060018060401b0382111761007f57604052565b610049565b90610097610090610035565b928361005d565b565b5f80fd5b5f80fd5b60018060a01b031690565b6100b5906100a1565b90565b6100c1816100ac565b036100c857565b5f80fd5b905051906100d9826100b8565b565b5f80fd5b60018060401b0381116100f55760208091020190565b610049565b5f80fd5b90565b61010a816100fe565b0361011157565b5f80fd5b9050519061012282610101565b565b90929192610139610134826100df565b610084565b938185526020808601920283019281841161017657915b83831061015d5750505050565b6020809161016b8486610115565b815201920191610150565b6100fa565b9080601f830112156101995781602061019693519101610124565b90565b6100db565b60018060401b0381116101b45760208091020190565b610049565b909291926101ce6101c98261019e565b610084565b938185526020808601920283019281841161020b57915b8383106101f25750505050565b6020809161020084866100cc565b8152019201916101e5565b6100fa565b9080601f8301121561022e5781602061022b935191016101b9565b90565b6100db565b916060838303126102935761024a825f85016100cc565b92602081015160018060401b03811161028e578361026991830161017b565b92604082015160018060401b038111610289576102869201610210565b90565b61009d565b61009d565b610099565b6102b6611574803803806102ab81610084565b928339810190610233565b909192565b5f1b90565b906102d160018060a01b03916102bb565b9181191691161790565b90565b6102f26102ed6102f7926100a1565b6102db565b6100a1565b90565b610303906102de565b90565b61030f906102fa565b90565b90565b9061032a61032561033192610306565b610312565b82546102c0565b9055565b5490565b600190818003010490565b5f5260205f2090565b1b90565b9190600861036c9102916103665f198461034d565b9261034d565b9181191691161790565b61038a61038561038f926100fe565b6102db565b6100fe565b90565b90565b91906103ab6103a66103b393610376565b610392565b908354610351565b9055565b5f90565b6103cd916103c76103b7565b91610395565b565b5b8181106103db575050565b806103e85f6001936103bb565b016103d0565b90918281106103fd575b505050565b61041b61041561040f61042695610339565b92610339565b92610344565b9182019101906103cf565b5f80806103f8565b90680100000000000000008111610457578161044c61045593610335565b908281556103ee565b565b610049565b5190565b61046a90516100fe565b90565b60200190565b61047c8261045c565b9160018060401b0383116104dd576104a86104a260019261049d868661042e565b61046d565b92610344565b9204915f5b8381106104ba5750505050565b60019060206104d06104cb86610460565b610392565b94019381840155016104ad565b610049565b906104ec91610473565b565b5490565b600190818003010490565b5f5260205f2090565b5b818110610512575050565b8061051f5f6001936103bb565b01610507565b9091828110610534575b505050565b61055261054c61054661055d956104f2565b926104f2565b926104fd565b918201910190610506565b5f808061052f565b9068010000000000000000811161058e578161058361058c936104ee565b90828155610525565b565b610049565b5190565b6105a190516100ac565b90565b60200190565b60018060a01b031690565b6105be82610593565b9160018060401b03831161061f576105ea6105e46001926105df8686610565565b6105a4565b926104fd565b9204915f5b8381106105fc5750505050565b600190602061061261060d86610597565b610312565b94019381840155016105ef565b610049565b9061062e916105b5565b565b61065a929161064c61065392610645336106a9565b6003610315565b60016104e2565b6002610624565b565b90565b61067361066e6106789261065c565b6102db565b6100a1565b90565b6106849061065f565b90565b610690906100ac565b9052565b91906106a7905f60208501940190610687565b565b806106c46106be6106b95f61067b565b6100ac565b916100ac565b146106d4576106d290610726565b565b6106f76106e05f61067b565b5f918291631e4fbdf760e01b835260048301610694565b0390fd5b5f1c90565b61070c610711916106fb565b6105aa565b90565b61071e9054610700565b90565b5f0190565b61072f5f610714565b610739825f610315565b9061076d6107677f8be0079c531659141344cd1fd0a4f28419497f9722a3daafe3b4186f6b6457e093610306565b91610306565b91610776610035565b8061078081610721565b0390a356fe60806040526004361015610013575b61052f565b61001d5f356100ac565b8063144fa6d7146100a75780631d1c833c146100a2578063715018a61461009d5780637fc0f2f4146100985780638da5cb5b14610093578063d2f809471461008e578063e46638e614610089578063f2fde38b146100845763fc0c546a0361000e576104fa565b6104b8565b610482565b610426565b610345565b610310565b6101f3565b6101b0565b61011d565b60e01c90565b60405190565b5f80fd5b5f80fd5b60018060a01b031690565b6100d4906100c0565b90565b6100e0816100cb565b036100e757565b5f80fd5b905035906100f8826100d7565b565b9060208282031261011357610110915f016100eb565b90565b6100bc565b5f0190565b3461014b576101356101303660046100fa565b6105cd565b61013d6100b2565b8061014781610118565b0390f35b6100b8565b90565b61015c81610150565b0361016357565b5f80fd5b9050359061017482610153565b565b90916060828403126101ab576101a8610191845f85016100eb565b9361019f81602086016100eb565b93604001610167565b90565b6100bc565b346101df576101c96101c3366004610176565b916108c1565b6101d16100b2565b806101db81610118565b0390f35b6100b8565b5f9103126101ee57565b6100bc565b34610221576102033660046101e4565b61020b61091b565b6102136100b2565b8061021d81610118565b0390f35b6100b8565b9060208282031261023f5761023c915f01610167565b90565b6100bc565b634e487b7160e01b5f52603260045260245ffd5b5490565b5f5260205f2090565b61026e81610258565b8210156102885761028060019161025c565b910201905f90565b610244565b1c90565b60018060a01b031690565b6102ac9060086102b1930261028d565b610291565b90565b906102bf915461029c565b90565b60026102cd81610258565b8210156102ea576102e7916102e191610265565b906102b4565b90565b5f80fd5b6102f7906100cb565b9052565b919061030e905f602085019401906102ee565b565b346103405761033c61032b610326366004610226565b6102c2565b6103336100b2565b918291826102fb565b0390f35b6100b8565b34610375576103553660046101e4565b610371610360610929565b6103686100b2565b918291826102fb565b0390f35b6100b8565b5490565b5f5260205f2090565b6103908161037a565b8210156103aa576103a260019161037e565b910201905f90565b610244565b90565b6103c29060086103c7930261028d565b6103af565b90565b906103d591546103b2565b90565b60016103e38161037a565b821015610400576103fd916103f791610387565b906103ca565b90565b5f80fd5b61040d90610150565b9052565b9190610424905f60208501940190610404565b565b346104565761045261044161043c366004610226565b6103d8565b6104496100b2565b91829182610411565b0390f35b6100b8565b151590565b6104699061045b565b9052565b9190610480905f60208501940190610460565b565b346104b3576104af61049e610498366004610176565b91610c78565b6104a66100b2565b9182918261046d565b0390f35b6100b8565b346104e6576104d06104cb3660046100fa565b610cf3565b6104d86100b2565b806104e281610118565b0390f35b6100b8565b6104f760035f906102b4565b90565b3461052a5761050a3660046101e4565b6105266105156104eb565b61051d6100b2565b918291826102fb565b0390f35b6100b8565b5f80fd5b6105449061053f610cfe565b6105c0565b565b5f1b90565b9061055c60018060a01b0391610546565b9181191691161790565b90565b61057d610578610582926100c0565b610566565b6100c0565b90565b61058e90610569565b90565b61059a90610585565b90565b90565b906105b56105b06105bc92610591565b61059d565b825461054b565b9055565b6105cb9060036105a0565b565b6105d690610533565b565b5f1c90565b6105e96105ee916105d8565b610291565b90565b6105fb90546105dd565b90565b60209181520190565b60207f63616e2063616c6c20746869732066756e6374696f6e00000000000000000000917f546f6b656e436f6d706c69616e63653a204f6e6c792074686520746f6b656e205f8201520152565b61066160366040926105fe565b61066a81610607565b0190565b6106839060208101905f818303910152610654565b90565b1561068d57565b6106956100b2565b62461bcd60e51b8152806106ab6004820161066e565b0390fd5b906106df92916106da336106d46106ce6106c960036105f1565b6100cb565b916100cb565b14610686565b6107d5565b565b90565b6106f86106f36106fd926106e1565b610566565b610150565b90565b600161070c9101610150565b90565b61071890610569565b90565b6107249061070f565b90565b61073090610585565b90565b5f80fd5b601f801991011690565b634e487b7160e01b5f52604160045260245ffd5b9061075f90610737565b810190811067ffffffffffffffff82111761077957604052565b610741565b60e01b90565b5f91031261078e57565b6100bc565b6040906107bc6107c394969593966107b260608401985f8501906102ee565b60208301906102ee565b0190610404565b565b6107cd6100b2565b3d5f823e3d90fd5b909291926107e25f6106e4565b5b806107ff6107f96107f46002610258565b610150565b91610150565b10156108ba5761082a61082561082061081a60028590610265565b906102b4565b61071b565b610727565b90631d1c833c8484938892813b156108b5575f61085a91610865829661084e6100b2565b998a978896879561077e565b855260048501610793565b03925af19182156108b05761087f92610884575b50610700565b6107e3565b6108a3905f3d81116108a9575b61089b8183610755565b810190610784565b5f610879565b503d610891565b6107c5565b610733565b5050509050565b906108cc92916106af565b565b6108d6610cfe565b6108de610908565b565b6108f46108ef6108f9926106e1565b610566565b6100c0565b90565b610905906108e0565b90565b6109196109145f6108fc565b610d4c565b565b6109236108ce565b565b5f90565b610931610925565b5061093b5f6105f1565b90565b5f90565b9061097393929161096e3361096861096261095d60036105f1565b6100cb565b916100cb565b14610686565b6109db565b90565b61097f90610569565b90565b61098b90610976565b90565b6109978161045b565b0361099e57565b5f80fd5b905051906109af8261098e565b565b906020828203126109ca576109c7915f016109a2565b90565b6100bc565b6109d890610585565b90565b92919092506109e983610982565b926109f382610982565b936109fd5f6106e4565b5b80610a1a610a14610a0f6002610258565b610150565b91610150565b1015610ae257610a45610a40610a3b610a3560028590610265565b906102b4565b61071b565b610727565b602063e46638e6918590610a6c8894610a778b610a606100b2565b9788968795869561077e565b855260048501610793565b03915afa8015610add57610a93915f91610aaf575b501561045b565b610aa557610aa090610700565b6109fe565b5050505050505f90565b610ad0915060203d8111610ad6575b610ac88183610755565b8101906109b1565b5f610a8c565b503d610abe565b6107c5565b509392505050610af15f6106e4565b5b80610b0e610b08610b03600161037a565b610150565b91610150565b1015610c7057610b606020610b22856109cf565b63da4cb04790610b55610b40610b3a60018890610387565b906103ca565b92610b496100b2565b9586948593849361077e565b835260048301610411565b03915afa8015610c6b57610b7c915f91610c3d575b501561045b565b8015610b9c575b610b9557610b9090610700565b610af2565b5050505f90565b50610be96020610bab846109cf565b63da4cb04790610bde610bc9610bc360018890610387565b906103ca565b92610bd26100b2565b9586948593849361077e565b835260048301610411565b03915afa8015610c3857610c05915f91610c0a575b501561045b565b610b83565b610c2b915060203d8111610c31575b610c238183610755565b8101906109b1565b5f610bfe565b503d610c19565b6107c5565b610c5e915060203d8111610c64575b610c568183610755565b8101906109b1565b5f610b75565b503d610c4c565b6107c5565b505050600190565b90610c8b9291610c8661093e565b610942565b90565b610c9f90610c9a610cfe565b610ca1565b565b80610cbc610cb6610cb15f6108fc565b6100cb565b916100cb565b14610ccc57610cca90610d4c565b565b610cef610cd85f6108fc565b5f918291631e4fbdf760e01b8352600483016102fb565b0390fd5b610cfc90610c8e565b565b610d06610929565b610d1f610d19610d14610dab565b6100cb565b916100cb565b03610d2657565b610d48610d31610dab565b5f91829163118cdaa760e01b8352600483016102fb565b0390fd5b610d555f6105f1565b610d5f825f6105a0565b90610d93610d8d7f8be0079c531659141344cd1fd0a4f28419497f9722a3daafe3b4186f6b6457e093610591565b91610591565b91610d9c6100b2565b80610da681610118565b0390a3565b610db3610925565b50339056fea2646970667358221220b2895e6057fe8628d0125fa5e459bb485eb34a35ac590ba7ac235a92aa4aa60464736f6c634300081d0033","linkReferences":{}},"methodIdentifiers":{"canTransfer(address,address,uint256)":"e46638e6","owner()":"8da5cb5b","renounceOwnership()":"715018a6","requiredClaims(uint256)":"d2f80947","setToken(address)":"144fa6d7","token()":"fc0c546a","tokensTransfered(address,address,uint256)":"1d1c833c","transferComplianceModules(uint256)":"7fc0f2f4","transferOwnership(address)":"f2fde38b"},"id":54}